{
  "contractName": "SupplyChain",
  "abi": [
    {
      "inputs": [
        {
          "internalType": "string",
          "name": "",
          "type": "string"
        }
      ],
      "name": "Distributor",
      "outputs": [
        {
          "internalType": "string",
          "name": "distributor_ID",
          "type": "string"
        },
        {
          "internalType": "address",
          "name": "addr",
          "type": "address"
        },
        {
          "internalType": "string",
          "name": "name",
          "type": "string"
        },
        {
          "internalType": "string",
          "name": "phone",
          "type": "string"
        },
        {
          "internalType": "string",
          "name": "addres",
          "type": "string"
        },
        {
          "internalType": "bool",
          "name": "isUserLoggedIn",
          "type": "bool"
        }
      ],
      "stateMutability": "view",
      "type": "function",
      "constant": true
    },
    {
      "inputs": [
        {
          "internalType": "string",
          "name": "",
          "type": "string"
        }
      ],
      "name": "Product",
      "outputs": [
        {
          "internalType": "string",
          "name": "Product_ID",
          "type": "string"
        },
        {
          "internalType": "address",
          "name": "addr",
          "type": "address"
        },
        {
          "internalType": "string",
          "name": "name",
          "type": "string"
        },
        {
          "internalType": "string",
          "name": "price",
          "type": "string"
        },
        {
          "internalType": "string",
          "name": "Categeroy",
          "type": "string"
        },
        {
          "internalType": "string",
          "name": "CNIC",
          "type": "string"
        },
        {
          "internalType": "string",
          "name": "email",
          "type": "string"
        },
        {
          "internalType": "bool",
          "name": "isUserLoggedIn",
          "type": "bool"
        }
      ],
      "stateMutability": "view",
      "type": "function",
      "constant": true
    },
    {
      "inputs": [
        {
          "internalType": "string",
          "name": "",
          "type": "string"
        }
      ],
      "name": "Supplier",
      "outputs": [
        {
          "internalType": "string",
          "name": "supplier_ID",
          "type": "string"
        },
        {
          "internalType": "address",
          "name": "addr",
          "type": "address"
        },
        {
          "internalType": "string",
          "name": "name",
          "type": "string"
        },
        {
          "internalType": "string",
          "name": "phone",
          "type": "string"
        },
        {
          "internalType": "string",
          "name": "addres",
          "type": "string"
        },
        {
          "internalType": "bool",
          "name": "isUserLoggedIn",
          "type": "bool"
        }
      ],
      "stateMutability": "view",
      "type": "function",
      "constant": true
    },
    {
      "inputs": [
        {
          "internalType": "string",
          "name": "_supplier_ID",
          "type": "string"
        },
        {
          "internalType": "string",
          "name": "_name",
          "type": "string"
        },
        {
          "internalType": "string",
          "name": "_phone",
          "type": "string"
        },
        {
          "internalType": "string",
          "name": "_addres",
          "type": "string"
        }
      ],
      "name": "registerS",
      "outputs": [
        {
          "internalType": "bool",
          "name": "",
          "type": "bool"
        }
      ],
      "stateMutability": "nonpayable",
      "type": "function"
    },
    {
      "inputs": [
        {
          "internalType": "string",
          "name": "_Product_ID",
          "type": "string"
        },
        {
          "internalType": "string",
          "name": "_name",
          "type": "string"
        },
        {
          "internalType": "string",
          "name": "_categegory",
          "type": "string"
        },
        {
          "internalType": "string",
          "name": "_price",
          "type": "string"
        }
      ],
      "name": "registerM",
      "outputs": [
        {
          "internalType": "bool",
          "name": "",
          "type": "bool"
        }
      ],
      "stateMutability": "nonpayable",
      "type": "function"
    },
    {
      "inputs": [
        {
          "internalType": "string",
          "name": "_Distributor_ID",
          "type": "string"
        },
        {
          "internalType": "string",
          "name": "_name",
          "type": "string"
        },
        {
          "internalType": "string",
          "name": "_phone",
          "type": "string"
        },
        {
          "internalType": "string",
          "name": "_addres",
          "type": "string"
        }
      ],
      "name": "registerD",
      "outputs": [
        {
          "internalType": "bool",
          "name": "",
          "type": "bool"
        }
      ],
      "stateMutability": "nonpayable",
      "type": "function"
    }
  ],
  "bytecode": "0x608060405234801561001057600080fd5b506114d1806100206000396000f3fe608060405234801561001057600080fd5b50600436106100625760003560e01c80630aac69e51461006757806310520f731461009c57806347244212146100d1578063608b638e146101085780636fc9e636146101385780639d4e639114610168575b600080fd5b610081600480360381019061007c9190610fed565b610198565b6040516100939695949392919061111a565b60405180910390f35b6100b660048036038101906100b19190610fed565b610437565b6040516100c89695949392919061111a565b60405180910390f35b6100eb60048036038101906100e69190610fed565b6106d6565b6040516100ff989796959493929190611197565b60405180910390f35b610122600480360381019061011d919061123f565b610a91565b60405161012f9190611316565b60405180910390f35b610152600480360381019061014d919061123f565b610bc4565b60405161015f9190611316565b60405180910390f35b610182600480360381019061017d919061123f565b610cf7565b60405161018f9190611316565b60405180910390f35b6000818051602081018201805184825260208301602085012081835280955050505050506000915090508060000180546101d190611360565b80601f01602080910402602001604051908101604052809291908181526020018280546101fd90611360565b801561024a5780601f1061021f5761010080835404028352916020019161024a565b820191906000526020600020905b81548152906001019060200180831161022d57829003601f168201915b5050505050908060010160009054906101000a900473ffffffffffffffffffffffffffffffffffffffff169080600201805461028590611360565b80601f01602080910402602001604051908101604052809291908181526020018280546102b190611360565b80156102fe5780601f106102d3576101008083540402835291602001916102fe565b820191906000526020600020905b8154815290600101906020018083116102e157829003601f168201915b50505050509080600301805461031390611360565b80601f016020809104026020016040519081016040528092919081815260200182805461033f90611360565b801561038c5780601f106103615761010080835404028352916020019161038c565b820191906000526020600020905b81548152906001019060200180831161036f57829003601f168201915b5050505050908060040180546103a190611360565b80601f01602080910402602001604051908101604052809291908181526020018280546103cd90611360565b801561041a5780601f106103ef5761010080835404028352916020019161041a565b820191906000526020600020905b8154815290600101906020018083116103fd57829003601f168201915b5050505050908060050160009054906101000a900460ff16905086565b60028180516020810182018051848252602083016020850120818352809550505050505060009150905080600001805461047090611360565b80601f016020809104026020016040519081016040528092919081815260200182805461049c90611360565b80156104e95780601f106104be576101008083540402835291602001916104e9565b820191906000526020600020905b8154815290600101906020018083116104cc57829003601f168201915b5050505050908060010160009054906101000a900473ffffffffffffffffffffffffffffffffffffffff169080600201805461052490611360565b80601f016020809104026020016040519081016040528092919081815260200182805461055090611360565b801561059d5780601f106105725761010080835404028352916020019161059d565b820191906000526020600020905b81548152906001019060200180831161058057829003601f168201915b5050505050908060030180546105b290611360565b80601f01602080910402602001604051908101604052809291908181526020018280546105de90611360565b801561062b5780601f106106005761010080835404028352916020019161062b565b820191906000526020600020905b81548152906001019060200180831161060e57829003601f168201915b50505050509080600401805461064090611360565b80601f016020809104026020016040519081016040528092919081815260200182805461066c90611360565b80156106b95780601f1061068e576101008083540402835291602001916106b9565b820191906000526020600020905b81548152906001019060200180831161069c57829003601f168201915b5050505050908060050160009054906101000a900460ff16905086565b60018180516020810182018051848252602083016020850120818352809550505050505060009150905080600001805461070f90611360565b80601f016020809104026020016040519081016040528092919081815260200182805461073b90611360565b80156107885780601f1061075d57610100808354040283529160200191610788565b820191906000526020600020905b81548152906001019060200180831161076b57829003601f168201915b5050505050908060010160009054906101000a900473ffffffffffffffffffffffffffffffffffffffff16908060020180546107c390611360565b80601f01602080910402602001604051908101604052809291908181526020018280546107ef90611360565b801561083c5780601f106108115761010080835404028352916020019161083c565b820191906000526020600020905b81548152906001019060200180831161081f57829003601f168201915b50505050509080600301805461085190611360565b80601f016020809104026020016040519081016040528092919081815260200182805461087d90611360565b80156108ca5780601f1061089f576101008083540402835291602001916108ca565b820191906000526020600020905b8154815290600101906020018083116108ad57829003601f168201915b5050505050908060040180546108df90611360565b80601f016020809104026020016040519081016040528092919081815260200182805461090b90611360565b80156109585780601f1061092d57610100808354040283529160200191610958565b820191906000526020600020905b81548152906001019060200180831161093b57829003601f168201915b50505050509080600501805461096d90611360565b80601f016020809104026020016040519081016040528092919081815260200182805461099990611360565b80156109e65780601f106109bb576101008083540402835291602001916109e6565b820191906000526020600020905b8154815290600101906020018083116109c957829003601f168201915b5050505050908060060180546109fb90611360565b80601f0160208091040260200160405190810160405280929190818152602001828054610a2790611360565b8015610a745780601f10610a4957610100808354040283529160200191610a74565b820191906000526020600020905b815481529060010190602001808311610a5757829003601f168201915b5050505050908060070160009054906101000a900460ff16905088565b60008480519060200120600186604051610aab91906113ce565b9081526020016040518091039020600001604051610ac99190611484565b60405180910390201415610adc57600080fd5b83600186604051610aed91906113ce565b90815260200160405180910390206002019080519060200190610b11929190610df0565b5082600186604051610b2391906113ce565b90815260200160405180910390206004019080519060200190610b47929190610df0565b5081600186604051610b5991906113ce565b90815260200160405180910390206003019080519060200190610b7d929190610df0565b506000600186604051610b9091906113ce565b908152602001604051809103902060070160006101000a81548160ff02191690831515021790555060019050949350505050565b60008480519060200120600286604051610bde91906113ce565b9081526020016040518091039020600001604051610bfc9190611484565b60405180910390201415610c0f57600080fd5b83600286604051610c2091906113ce565b90815260200160405180910390206002019080519060200190610c44929190610df0565b5082600286604051610c5691906113ce565b90815260200160405180910390206003019080519060200190610c7a929190610df0565b5081600286604051610c8c91906113ce565b90815260200160405180910390206004019080519060200190610cb0929190610df0565b506000600286604051610cc391906113ce565b908152602001604051809103902060050160006101000a81548160ff02191690831515021790555060019050949350505050565b60008480519060200120600086604051610d1191906113ce565b9081526020016040518091039020600001604051610d2f9190611484565b60405180910390201415610d4257600080fd5b82600086604051610d5391906113ce565b90815260200160405180910390206003019080519060200190610d77929190610df0565b5081600086604051610d8991906113ce565b90815260200160405180910390206004019080519060200190610dad929190610df0565b5083600086604051610dbf91906113ce565b90815260200160405180910390206002019080519060200190610de3929190610df0565b5060019050949350505050565b828054610dfc90611360565b90600052602060002090601f016020900481019282610e1e5760008555610e65565b82601f10610e3757805160ff1916838001178555610e65565b82800160010185558215610e65579182015b82811115610e64578251825591602001919060010190610e49565b5b509050610e729190610e76565b5090565b5b80821115610e8f576000816000905550600101610e77565b5090565b6000604051905090565b600080fd5b600080fd5b600080fd5b600080fd5b6000601f19601f8301169050919050565b7f4e487b7100000000000000000000000000000000000000000000000000000000600052604160045260246000fd5b610efa82610eb1565b810181811067ffffffffffffffff82111715610f1957610f18610ec2565b5b80604052505050565b6000610f2c610e93565b9050610f388282610ef1565b919050565b600067ffffffffffffffff821115610f5857610f57610ec2565b5b610f6182610eb1565b9050602081019050919050565b82818337600083830152505050565b6000610f90610f8b84610f3d565b610f22565b905082815260208101848484011115610fac57610fab610eac565b5b610fb7848285610f6e565b509392505050565b600082601f830112610fd457610fd3610ea7565b5b8135610fe4848260208601610f7d565b91505092915050565b60006020828403121561100357611002610e9d565b5b600082013567ffffffffffffffff81111561102157611020610ea2565b5b61102d84828501610fbf565b91505092915050565b600081519050919050565b600082825260208201905092915050565b60005b83811015611070578082015181840152602081019050611055565b8381111561107f576000848401525b50505050565b600061109082611036565b61109a8185611041565b93506110aa818560208601611052565b6110b381610eb1565b840191505092915050565b600073ffffffffffffffffffffffffffffffffffffffff82169050919050565b60006110e9826110be565b9050919050565b6110f9816110de565b82525050565b60008115159050919050565b611114816110ff565b82525050565b600060c08201905081810360008301526111348189611085565b905061114360208301886110f0565b81810360408301526111558187611085565b905081810360608301526111698186611085565b9050818103608083015261117d8185611085565b905061118c60a083018461110b565b979650505050505050565b60006101008201905081810360008301526111b2818b611085565b90506111c1602083018a6110f0565b81810360408301526111d38189611085565b905081810360608301526111e78188611085565b905081810360808301526111fb8187611085565b905081810360a083015261120f8186611085565b905081810360c08301526112238185611085565b905061123260e083018461110b565b9998505050505050505050565b6000806000806080858703121561125957611258610e9d565b5b600085013567ffffffffffffffff81111561127757611276610ea2565b5b61128387828801610fbf565b945050602085013567ffffffffffffffff8111156112a4576112a3610ea2565b5b6112b087828801610fbf565b935050604085013567ffffffffffffffff8111156112d1576112d0610ea2565b5b6112dd87828801610fbf565b925050606085013567ffffffffffffffff8111156112fe576112fd610ea2565b5b61130a87828801610fbf565b91505092959194509250565b600060208201905061132b600083018461110b565b92915050565b7f4e487b7100000000000000000000000000000000000000000000000000000000600052602260045260246000fd5b6000600282049050600182168061137857607f821691505b6020821081141561138c5761138b611331565b5b50919050565b600081905092915050565b60006113a882611036565b6113b28185611392565b93506113c2818560208601611052565b80840191505092915050565b60006113da828461139d565b915081905092915050565b600081905092915050565b60008190508160005260206000209050919050565b6000815461141281611360565b61141c81866113e5565b9450600182166000811461143757600181146114485761147b565b60ff1983168652818601935061147b565b611451856113f0565b60005b8381101561147357815481890152600182019150602081019050611454565b838801955050505b50505092915050565b60006114908284611405565b91508190509291505056fea2646970667358221220fd6cbd0239417881ac8cd305320853a944495afd29b609ad5a7cc8d223d9a0f764736f6c634300080b0033",
  "immutableReferences": {},
  "source": "// SPDX-License-Identifier: MIT\r\npragma solidity >=0.4.22 <0.9.0;\r\n\r\n\r\ncontract SupplyChain{\r\n\r\n   struct ProductDetail {\r\n        string Product_ID;\r\n        address addr;\r\n        string name;\r\n        string price;\r\n        string Categeroy;\r\n        string CNIC;\r\n        string email;\r\n        bool isUserLoggedIn;\r\n    }   \r\n   struct SupplierDetail {\r\n        string supplier_ID;\r\n        address addr;\r\n        string name;\r\n        string phone;\r\n        string addres;\r\n        bool isUserLoggedIn;\r\n    }\r\n\r\n  struct DistributorDetail {\r\n        string distributor_ID;\r\n        address addr;\r\n        string name;\r\n        string phone;\r\n        string addres;\r\n        bool isUserLoggedIn;\r\n    }\r\n    mapping(string => SupplierDetail) public Supplier;\r\n    mapping(string => ProductDetail) public Product;\r\n    mapping(string => DistributorDetail ) public Distributor;\r\n//Supplier\r\nfunction registerS(\r\n        string memory _supplier_ID,\r\n        string memory _name,\r\n        string memory _phone,\r\n        string memory _addres\r\n    ) public returns (bool) {\r\n        require(keccak256(bytes(Supplier[_supplier_ID].supplier_ID )) !=  keccak256(bytes(_supplier_ID)));\r\n        Supplier[_supplier_ID].phone = _phone;\r\n        Supplier[_supplier_ID].addres=_addres;\r\n        Supplier[_supplier_ID].name = _name;\r\n        return true;\r\n    }\r\n//Manufacture\r\nfunction registerM(\r\n        string memory _Product_ID,\r\n        string memory _name,\r\n        string memory _categegory,\r\n        string memory _price\r\n    ) public returns (bool) {\r\n        require(keccak256(bytes(Product[_Product_ID].Product_ID )) !=  keccak256(bytes(_Product_ID)));\r\n        Product[_Product_ID].name = _name;\r\n        Product[_Product_ID].Categeroy = _categegory;\r\n        Product[_Product_ID].price =_price;\r\n        Product[_Product_ID].isUserLoggedIn = false;\r\n        return true;\r\n    }\r\n\r\n    //Distributor\r\n    function registerD(\r\n        string memory _Distributor_ID,\r\n        string memory _name,\r\n        string memory _phone,\r\n        string memory _addres\r\n    ) public returns (bool) {\r\n        require(keccak256(bytes(Distributor[_Distributor_ID].distributor_ID )) !=  keccak256(bytes(_Distributor_ID)));\r\n        Distributor[_Distributor_ID].name = _name;\r\n        Distributor[_Distributor_ID].phone = _phone;\r\n        Distributor[_Distributor_ID].addres =_addres;\r\n        Distributor[_Distributor_ID].isUserLoggedIn = false;\r\n        return true;\r\n    }\r\n\r\n}\r\n\r\n  \r\n\r\n",
  "sourcePath": "E:\\Project\\FYP\\client\\contracts\\Supplychain.sol",
  "compiler": {
    "name": "solc",
    "version": "0.8.11+commit.d7f03943.Emscripten.clang"
  },
  "schemaVersion": "3.4.5",
  "updatedAt": "2022-09-12T16:49:15.139Z",
  "networkType": "ethereum",
  "devdoc": {
    "kind": "dev",
    "methods": {},
    "version": 1
  },
  "userdoc": {
    "kind": "user",
    "methods": {},
    "version": 1
  }
}